{
  "_format": "hh-sol-artifact-1",
  "contractName": "AreaCalculator",
  "sourceName": "contracts/AreaShape.sol",
  "abi": [
    {
      "inputs": [
        {
          "internalType": "uint256",
          "name": "lenght",
          "type": "uint256"
        },
        {
          "internalType": "uint256",
          "name": "width",
          "type": "uint256"
        }
      ],
      "name": "RectangleArea",
      "outputs": [
        {
          "internalType": "uint256",
          "name": "",
          "type": "uint256"
        }
      ],
      "stateMutability": "pure",
      "type": "function"
    },
    {
      "inputs": [
        {
          "internalType": "uint256",
          "name": "lenght",
          "type": "uint256"
        }
      ],
      "name": "SquareArea",
      "outputs": [
        {
          "internalType": "uint256",
          "name": "",
          "type": "uint256"
        }
      ],
      "stateMutability": "pure",
      "type": "function"
    },
    {
      "inputs": [
        {
          "internalType": "uint256",
          "name": "base",
          "type": "uint256"
        },
        {
          "internalType": "uint256",
          "name": "height",
          "type": "uint256"
        }
      ],
      "name": "TriangleArea",
      "outputs": [
        {
          "internalType": "uint256",
          "name": "",
          "type": "uint256"
        }
      ],
      "stateMutability": "pure",
      "type": "function"
    }
  ],
  "bytecode": "0x608060405234801561001057600080fd5b50610307806100206000396000f3fe608060405234801561001057600080fd5b50600436106100415760003560e01c80633b92587a146100465780636a19d69014610076578063d8c4b799146100a6575b600080fd5b610060600480360381019061005b9190610169565b6100d6565b60405161006d91906101b8565b60405180910390f35b610090600480360381019061008b9190610169565b6100ec565b60405161009d91906101b8565b60405180910390f35b6100c060048036038101906100bb91906101d3565b610119565b6040516100cd91906101b8565b60405180910390f35b600081836100e4919061022f565b905092915050565b60008082846100fb919061022f565b9050600060028261010c91906102a0565b9050809250505092915050565b60008182610127919061022f565b9050919050565b600080fd5b6000819050919050565b61014681610133565b811461015157600080fd5b50565b6000813590506101638161013d565b92915050565b600080604083850312156101805761017f61012e565b5b600061018e85828601610154565b925050602061019f85828601610154565b9150509250929050565b6101b281610133565b82525050565b60006020820190506101cd60008301846101a9565b92915050565b6000602082840312156101e9576101e861012e565b5b60006101f784828501610154565b91505092915050565b7f4e487b7100000000000000000000000000000000000000000000000000000000600052601160045260246000fd5b600061023a82610133565b915061024583610133565b925082820261025381610133565b9150828204841483151761026a57610269610200565b5b5092915050565b7f4e487b7100000000000000000000000000000000000000000000000000000000600052601260045260246000fd5b60006102ab82610133565b91506102b683610133565b9250826102c6576102c5610271565b5b82820490509291505056fea2646970667358221220d5c2a98bda54d49af53e5616c13c12b9be40aeac14ef373260b7a2a141bb2f3364736f6c63430008180033",
  "linkReferences": {},
  "deployedLinkReferences": {}
}